{
  "contractName": "Ballot",
  "abi": [
    {
      "constant": true,
      "inputs": [
        {
          "name": "",
          "type": "uint256"
        }
      ],
      "name": "proposals",
      "outputs": [
        {
          "name": "name",
          "type": "bytes32"
        },
        {
          "name": "voteCount",
          "type": "uint256"
        }
      ],
      "payable": false,
      "stateMutability": "view",
      "type": "function"
    },
    {
      "constant": true,
      "inputs": [],
      "name": "chairperson",
      "outputs": [
        {
          "name": "",
          "type": "address"
        }
      ],
      "payable": false,
      "stateMutability": "view",
      "type": "function"
    },
    {
      "constant": true,
      "inputs": [
        {
          "name": "",
          "type": "address"
        }
      ],
      "name": "winningProposal",
      "outputs": [
        {
          "name": "winningProposal",
          "type": "uint256"
        },
        {
          "name": "voted",
          "type": "bool"
        },
        {
          "name": "delegate",
          "type": "address"
        },
        {
          "name": "vote",
          "type": "uint256"
        }
      ],
      "payable": false,
      "stateMutability": "view",
      "type": "function"
    },
    {
      "constant": true,
      "inputs": [
        {
          "name": "",
          "type": "address"
        }
      ],
      "name": "voters",
      "outputs": [
        {
          "name": "weight",
          "type": "uint256"
        },
        {
          "name": "voted",
          "type": "bool"
        },
        {
          "name": "delegate",
          "type": "address"
        },
        {
          "name": "vote",
          "type": "uint256"
        }
      ],
      "payable": false,
      "stateMutability": "view",
      "type": "function"
    },
    {
      "constant": true,
      "inputs": [
        {
          "name": "proposal",
          "type": "uint256"
        }
      ],
      "name": "Printall",
      "outputs": [
        {
          "name": "Printall",
          "type": "uint256"
        },
        {
          "name": "voted",
          "type": "bool"
        },
        {
          "name": "delegate",
          "type": "address"
        },
        {
          "name": "vote",
          "type": "uint256"
        }
      ],
      "payable": false,
      "stateMutability": "view",
      "type": "function"
    },
    {
      "constant": false,
      "inputs": [
        {
          "name": "proposal",
          "type": "uint256"
        }
      ],
      "name": "Vote",
      "outputs": [
        {
          "name": "winnerName",
          "type": "bytes32"
        }
      ],
      "payable": false,
      "stateMutability": "nonpayable",
      "type": "function"
    },
    {
      "constant": true,
      "inputs": [
        {
          "name": "proposalNames",
          "type": "bytes32"
        }
      ],
      "name": "winnerName",
      "outputs": [
        {
          "name": "winnerName",
          "type": "bytes32"
        }
      ],
      "payable": false,
      "stateMutability": "view",
      "type": "function"
    },
    {
      "inputs": [
        {
          "name": "proposalNames",
          "type": "bytes32"
        }
      ],
      "payable": false,
      "stateMutability": "nonpayable",
      "type": "constructor"
    }
  ],
  "bytecode": "0x6060604052341561000f57600080fd5b6040516020806106f7833981016040528080519060200190919050506000336000806101000a81548173ffffffffffffffffffffffffffffffffffffffff021916908373ffffffffffffffffffffffffffffffffffffffff16021790555060018060008060009054906101000a900473ffffffffffffffffffffffffffffffffffffffff1673ffffffffffffffffffffffffffffffffffffffff1673ffffffffffffffffffffffffffffffffffffffff16815260200190815260200160002060000181905550600090505b602060ff168110156101a557600280548060010182816100fa91906101ac565b916000526020600020906002020160006040805190810160405280868660208110151561012357fe5b1a7f0100000000000000000000000000000000000000000000000000000000000000027effffffffffffffffffffffffffffffffffffffffffffffffffffffffffffff191660001916815260200160008152509091909150600082015181600001906000191690556020820151816001015550505080806001019150506100da565b505061020d565b8154818355818115116101d9576002028160020283600052602060002091820191016101d891906101de565b5b505050565b61020a91905b80821115610206576000808201600090556001820160009055506002016101e4565b5090565b90565b6104db8061021c6000396000f300606060405260043610610083576000357c0100000000000000000000000000000000000000000000000000000000900463ffffffff168063013cf08b146100885780632e4176cf146100ce578063609ff1bd14610123578063a3ec138d1461014c578063b178b30e146101de578063dcd6a5cd14610207578063e2ba53f01461022a575b600080fd5b341561009357600080fd5b6100a9600480803590602001909190505061025b565b6040518083600019166000191681526020018281526020019250505060405180910390f35b34156100d957600080fd5b6100e161028e565b604051808273ffffffffffffffffffffffffffffffffffffffff1673ffffffffffffffffffffffffffffffffffffffff16815260200191505060405180910390f35b341561012e57600080fd5b6101366102b3565b6040518082815260200191505060405180910390f35b341561015757600080fd5b610183600480803573ffffffffffffffffffffffffffffffffffffffff1690602001909190505061032e565b60405180858152602001841515151581526020018373ffffffffffffffffffffffffffffffffffffffff1673ffffffffffffffffffffffffffffffffffffffff16815260200182815260200194505050505060405180910390f35b34156101e957600080fd5b6101f161038b565b6040518082815260200191505060405180910390f35b341561021257600080fd5b61022860048080359060200190919050506103cc565b005b341561023557600080fd5b61023d610480565b60405180826000191660001916815260200191505060405180910390f35b60028181548110151561026a57fe5b90600052602060002090600202016000915090508060000154908060010154905082565b6000809054906101000a900473ffffffffffffffffffffffffffffffffffffffff1681565b6000806000809150600090505b60028054905081101561032957816002828154811015156102dd57fe5b906000526020600020906002020160010154111561031c5760028181548110151561030457fe5b90600052602060002090600202016001015491508092505b80806001019150506102c0565b505090565b60016020528060005260406000206000915090508060000154908060010160009054906101000a900460ff16908060010160019054906101000a900473ffffffffffffffffffffffffffffffffffffffff16908060020154905084565b600060016002805490501015156103c4576002808154811015156103ab57fe5b90600052602060002090600202016001015490506103c9565b605890505b90565b6000600160003373ffffffffffffffffffffffffffffffffffffffff1673ffffffffffffffffffffffffffffffffffffffff16815260200190815260200160002090508060010160009054906101000a900460ff1615151561042d57600080fd5b60018160010160006101000a81548160ff021916908315150217905550818160020181905550806000015460028381548110151561046757fe5b9060005260206000209060020201600101819055505050565b6000600261048c6102b3565b81548110151561049857fe5b9060005260206000209060020201600001549050905600a165627a7a72305820d5f9f6b2d2fbb8b1c8f66f9dcca783bdc9ef244d5888c15c7e15e6ff007ddf9f0029",
  "source": "pragma solidity^0.4.17;\n\ncontract Ballot{\n\n    struct Voter{\n        uint weight;\n        bool voted;\n        address delegate;\n        uint vote;\n    }\n    struct Proposal{\n        bytes32 name;\n        uint voteCount;\n    }\n\n    address public chairperson;\n\n    mapping(address => Voter) public voters;\n\n    Proposal[] public proposals;\n\n    function Ballot(bytes32 proposalNames) public{\n        chairperson = msg.sender;\n        voters[chairperson].weight = 1;\n\n        for(uint i=0; i< proposalNames.length; i++){\n            proposals.push(Proposal({\n                name: proposalNames[i],\n                voteCount: 0\n            }));\n        }\n    }\n\n    function giveRightToVote(address voter) private {\n    require((msg.sender == chairperson) && !voters[voter].voted && (voters[voter].weight == 0));\n    voters[voter].weight = 1;\n\n    }\n\n    function Vote(uint proposal) public {\n\n        Voter storage sender = voters[msg.sender];\n        require(!sender.voted);\n        sender.voted = true;\n        sender.vote = proposal;\n        proposals[proposal].voteCount = sender.weight;\n\n    }\n\n    function Printall() public constant returns (uint Printall){\n        if(proposals.length >=1){\n          Printall = proposals[2].voteCount;\n        }\n        else{\n          Printall = 88;\n        }\n\n    }\n\n\n    function winningProposal() public constant returns (uint winningProposal)  {\n        uint winningVoteCount = 0;\n        for(uint p=0; p<proposals.length; p++){\n            if(proposals[p].voteCount > winningVoteCount){\n                winningVoteCount = proposals[p].voteCount;\n                winningProposal = p;\n            }\n        }\n\n    }\n\n    function winnerName() public constant returns (bytes32 winnerName){\n        winnerName = proposals[winningProposal()].name;\n    }\n}\n",
  "sourcePath": "/home/dotftu/Ethereum/Lab3/contracts/Ballot.sol",
  "compiler": {
    "name": "solc",
    "version": "0.4.18+commit.9cf6e910.Emscripten.clang"
  },
  "schemaVersion": "1.0.1",
  "updatedAt": "2017-12-11T21:00:41.114Z"
}