{
  "contractName": "Voting",
  "abi": [
    {
      "constant": true,
      "inputs": [
        {
          "name": "ich",
          "type": "uint256"
        }
      ],
      "name": "voteCounts",
      "outputs": [
        {
          "name": "icnt",
          "type": "uint256"
        }
      ],
      "payable": false,
      "stateMutability": "view",
      "type": "function"
    },
    {
      "constant": false,
      "inputs": [],
      "name": "kill",
      "outputs": [
        {
          "name": "",
          "type": "address"
        }
      ],
      "payable": false,
      "stateMutability": "nonpayable",
      "type": "function"
    },
    {
      "constant": true,
      "inputs": [
        {
          "name": "",
          "type": "address"
        }
      ],
      "name": "director",
      "outputs": [
        {
          "name": "",
          "type": "address"
        },
        {
          "name": "voted",
          "type": "bool"
        },
        {
          "name": "identifier",
          "type": "address"
        },
        {
          "name": "answer",
          "type": "uint256"
        },
        {
          "name": "canSee",
          "type": "uint256"
        }
      ],
      "payable": false,
      "stateMutability": "view",
      "type": "function"
    },
    {
      "constant": true,
      "inputs": [
        {
          "name": "",
          "type": "address"
        }
      ],
      "name": "Shareholders",
      "outputs": [
        {
          "name": "canVote",
          "type": "uint256"
        },
        {
          "name": "voted",
          "type": "bool"
        },
        {
          "name": "identifier",
          "type": "address"
        },
        {
          "name": "answer",
          "type": "uint256"
        },
        {
          "name": "canSee",
          "type": "uint256"
        }
      ],
      "payable": false,
      "stateMutability": "view",
      "type": "function"
    },
    {
      "constant": true,
      "inputs": [
        {
          "name": "holder",
          "type": "address"
        }
      ],
      "name": "voteDecision",
      "outputs": [
        {
          "name": "propName",
          "type": "bytes32"
        }
      ],
      "payable": false,
      "stateMutability": "view",
      "type": "function"
    },
    {
      "constant": false,
      "inputs": [
        {
          "name": "holder",
          "type": "address"
        }
      ],
      "name": "removeShareholder",
      "outputs": [
        {
          "name": "name",
          "type": "bytes32"
        },
        {
          "name": "count",
          "type": "uint256"
        }
      ],
      "payable": false,
      "stateMutability": "nonpayable",
      "type": "function"
    },
    {
      "inputs": [
        {
          "name": "question",
          "type": "bytes32"
        }
      ],
      "payable": false,
      "stateMutability": "nonpayable",
      "type": "function",
      "constant": false,
      "name": "addQuestion",
      "outputs": []
    },
    {
      "anonymous": false,
      "inputs": [
        {
          "indexed": true,
          "name": "holder",
          "type": "address"
        },
        {
          "indexed": true,
          "name": "_holder",
          "type": "address"
        }
      ],
      "name": "closeVoting",
      "type": "function",
      "constant": false,
      "outputs": [],
      "payable": false,
      "stateMutability": "nonpayable"
    },
    {
      "anonymous": false,
      "inputs": [
        {
          "indexed": true,
          "name": "holder",
          "type": "address"
        },
        {
          "indexed": true,
          "name": "_holder",
          "type": "address"
        }
      ],
      "name": "addShareholder",
      "type": "function",
      "constant": false,
      "outputs": [],
      "payable": false,
      "stateMutability": "nonpayable"
    },
    {
      "anonymous": false,
      "inputs": [
        {
          "indexed": true,
          "name": "choiceNumber",
          "type": "uint256"
        },
        {
          "indexed": true,
          "name": "_question",
          "type": "bytes32"
        }
      ],
      "name": "Vote",
      "type": "function",
      "constant": false,
      "outputs": [
        {
          "name": "name",
          "type": "bytes32"
        },
        {
          "name": "count",
          "type": "uint256"
        }
      ],
      "payable": false,
      "stateMutability": "nonpayable"
    },
    {
      "inputs": [
        {
          "name": "",
          "type": "uint256"
        }
      ],
      "payable": false,
      "stateMutability": "view",
      "type": "function",
      "constant": true,
      "name": "choices",
      "outputs": [
        {
          "name": "name",
          "type": "bytes32"
        },
        {
          "name": "count",
          "type": "uint256"
        }
      ]
    },
    {
      "anonymous": false,
      "inputs": [
        {
          "indexed": true,
          "name": "_from",
          "type": "address"
        },
        {
          "indexed": true,
          "name": "_holder",
          "type": "address"
        }
      ],
      "name": "shareholderAdded",
      "type": "constructor",
      "payable": false,
      "stateMutability": "nonpayable"
    },
    {
      "anonymous": false,
      "inputs": [
        {
          "indexed": true,
          "name": "_from",
          "type": "address"
        },
        {
          "indexed": true,
          "name": "_holder",
          "type": "address"
        }
      ],
      "name": "shareholderAdded",
      "type": "event"
    },
    {
      "anonymous": false,
      "inputs": [
        {
          "indexed": true,
          "name": "_from",
          "type": "address"
        },
        {
          "indexed": true,
          "name": "_holder",
          "type": "address"
        }
      ],
      "name": "shareholderRemoved",
      "type": "event"
    },
    {
      "anonymous": false,
      "inputs": [
        {
          "indexed": true,
          "name": "_from",
          "type": "address"
        },
        {
          "indexed": true,
          "name": "_question",
          "type": "bytes32"
        }
      ],
      "name": "questionAdded",
      "type": "event"
    }
  ],
  "bytecode": "0x6060604052341561000f57600080fd5b33600260006101000a81548173ffffffffffffffffffffffffffffffffffffffff021916908373ffffffffffffffffffffffffffffffffffffffff160217905550600160036000600260009054906101000a900473ffffffffffffffffffffffffffffffffffffffff1673ffffffffffffffffffffffffffffffffffffffff1673ffffffffffffffffffffffffffffffffffffffff16815260200190815260200160002060000181905550600160036000600260009054906101000a900473ffffffffffffffffffffffffffffffffffffffff1673ffffffffffffffffffffffffffffffffffffffff1673ffffffffffffffffffffffffffffffffffffffff1681526020019081526020016000206003018190555060016000819055506000600181905550610b84806101436000396000f3006060604052600436106100af576000357c0100000000000000000000000000000000000000000000000000000000900463ffffffff1680633c3a220d146100b457806341c0e1b5146100eb5780635af82abf146101005780635e5a269d1461015557806365000984146101ee5780639babdad61461021f578063b7df075014610258578063c631b2921461027f578063db29fe1214610294578063dcd6a5cd146102cd578063f6fd7fde146102f0575b600080fd5b34156100bf57600080fd5b6100d56004808035906020019091905050610336565b6040518082815260200191505060405180910390f35b34156100f657600080fd5b6100fe610360565b005b341561010b57600080fd5b6101136103f3565b604051808273ffffffffffffffffffffffffffffffffffffffff1673ffffffffffffffffffffffffffffffffffffffff16815260200191505060405180910390f35b341561016057600080fd5b61018c600480803573ffffffffffffffffffffffffffffffffffffffff16906020019091905050610419565b60405180868152602001851515151581526020018473ffffffffffffffffffffffffffffffffffffffff1673ffffffffffffffffffffffffffffffffffffffff1681526020018381526020018281526020019550505050505060405180910390f35b34156101f957600080fd5b61020161047c565b60405180826000191660001916815260200191505060405180910390f35b341561022a57600080fd5b610256600480803573ffffffffffffffffffffffffffffffffffffffff169060200190919050506104a8565b005b341561026357600080fd5b61027d600480803560001916906020019091905050610651565b005b341561028a57600080fd5b610292610758565b005b341561029f57600080fd5b6102cb600480803573ffffffffffffffffffffffffffffffffffffffff169060200190919050506107c4565b005b34156102d857600080fd5b6102ee600480803590602001909190505061096c565b005b34156102fb57600080fd5b6103116004808035906020019091905050610a29565b6040518083600019166000191681526020018281526020019250505060405180910390f35b600060048281548110151561034757fe5b9060005260206000209060020201600101549050919050565b600260009054906101000a900473ffffffffffffffffffffffffffffffffffffffff1673ffffffffffffffffffffffffffffffffffffffff163373ffffffffffffffffffffffffffffffffffffffff1614156103f157600260009054906101000a900473ffffffffffffffffffffffffffffffffffffffff1673ffffffffffffffffffffffffffffffffffffffff16ff5b565b600260009054906101000a900473ffffffffffffffffffffffffffffffffffffffff1681565b60036020528060005260406000206000915090508060000154908060010160009054906101000a900460ff16908060010160019054906101000a900473ffffffffffffffffffffffffffffffffffffffff16908060020154908060030154905085565b600080600054148015610490575060018054145b151561049b57600080fd5b6104a3610a5c565b905090565b600260009054906101000a900473ffffffffffffffffffffffffffffffffffffffff1673ffffffffffffffffffffffffffffffffffffffff163373ffffffffffffffffffffffffffffffffffffffff16141580156105535750600360008273ffffffffffffffffffffffffffffffffffffffff1673ffffffffffffffffffffffffffffffffffffffff16815260200190815260200160002060010160009054906101000a900460ff16155b80156105a157506001600360008373ffffffffffffffffffffffffffffffffffffffff1673ffffffffffffffffffffffffffffffffffffffff16815260200190815260200160002060000154145b15156105ac57600080fd5b6000600360008373ffffffffffffffffffffffffffffffffffffffff1673ffffffffffffffffffffffffffffffffffffffff168152602001908152602001600020600001819055508073ffffffffffffffffffffffffffffffffffffffff163373ffffffffffffffffffffffffffffffffffffffff167f2eb2d58d9a5207cc0a87615c4ad33721c7f5e0258f199bcbe11ac727a8b2078860405160405180910390a350565b600260009054906101000a900473ffffffffffffffffffffffffffffffffffffffff1673ffffffffffffffffffffffffffffffffffffffff163373ffffffffffffffffffffffffffffffffffffffff161415156106ad57600080fd5b600480548060010182816106c19190610af7565b9160005260206000209060020201600060408051908101604052808560001916815260200160008152509091909150600082015181600001906000191690556020820151816001015550505080600019163373ffffffffffffffffffffffffffffffffffffffff167f3107d92e638c160c6b035e1e4a21e171aebd46d48b0e908b82dca46937c5794a60405160405180910390a350565b600260009054906101000a900473ffffffffffffffffffffffffffffffffffffffff1673ffffffffffffffffffffffffffffffffffffffff163373ffffffffffffffffffffffffffffffffffffffff161415156107b457600080fd5b6000808190555060018081905550565b600260009054906101000a900473ffffffffffffffffffffffffffffffffffffffff1673ffffffffffffffffffffffffffffffffffffffff163373ffffffffffffffffffffffffffffffffffffffff1614801561086e5750600360008273ffffffffffffffffffffffffffffffffffffffff1673ffffffffffffffffffffffffffffffffffffffff16815260200190815260200160002060010160009054906101000a900460ff16155b80156108bc57506000600360008373ffffffffffffffffffffffffffffffffffffffff1673ffffffffffffffffffffffffffffffffffffffff16815260200190815260200160002060000154145b15156108c757600080fd5b6001600360008373ffffffffffffffffffffffffffffffffffffffff1673ffffffffffffffffffffffffffffffffffffffff168152602001908152602001600020600001819055508073ffffffffffffffffffffffffffffffffffffffff163373ffffffffffffffffffffffffffffffffffffffff167f3a92b80d82ff2e18d17758a4cd96ccad86dac899b3b4fa112fa867b034f869a860405160405180910390a350565b6000600360003373ffffffffffffffffffffffffffffffffffffffff1673ffffffffffffffffffffffffffffffffffffffff16815260200190815260200160002090508060010160009054906101000a900460ff161515156109cd57600080fd5b60018160010160006101000a81548160ff0219169083151502179055508181600201819055508060000154600483815481101515610a0757fe5b9060005260206000209060020201600101600082825401925050819055505050565b600481815481101515610a3857fe5b90600052602060002090600202016000915090508060000154908060010154905082565b6000806000809150600090505b600480549050811015610af25781600482815481101515610a8657fe5b9060005260206000209060020201600101541115610ae557600481815481101515610aad57fe5b9060005260206000209060020201600101549150600481815481101515610ad057fe5b90600052602060002090600202016000015492505b8080600101915050610a69565b505090565b815481835581811511610b2457600202816002028360005260206000209182019101610b239190610b29565b5b505050565b610b5591905b80821115610b5157600080820160009055600182016000905550600201610b2f565b5090565b905600a165627a7a72305820e6755a09aab1b335c4b0fbbb83eeae320d49dfb4bd8feda216dc5788a05a741a0029",
  "source": "pragma solidity^0.4.17;\n\ncontract Voting{\n\n    uint voteOpen;\n    uint Decieded;\n    struct Shareholder{\n        uint canVote;\n        bool voted;\n        address identifier;\n        uint answer;\n        uint canSee;\n    }\n\n    struct Choice{\n        bytes32 name;\n        uint count;\n    }\n\n    address public director;\n\n    mapping(address => Shareholder) public Shareholders;\n    Choice[] public choices;\n\n    event shareholderAdded(\n        address indexed _from,\n        address indexed _holder\n    );\n\n    event shareholderRemoved(\n        address indexed _from,\n        address indexed _holder\n    );\n\n    event questionAdded(\n            address indexed _from,\n            bytes32 indexed _question\n        );\n\n    function Voting() public {\n        director = msg.sender;\n        Shareholders[director].canVote = 1;\n        Shareholders[director].canSee = 1;\n        voteOpen = 1;\n        Decieded = 0;\n    }\n    //\n    function addQuestion(bytes32 question) public{\n        require(msg.sender == director);\n        choices.push(Choice({\n            name: question,\n            count: 0\n        }));\n        questionAdded(msg.sender, question);\n    }\n\n    //\n    function addShareholder(address holder) public {\n        require((msg.sender == director) && !Shareholders[holder].voted && (Shareholders[holder].canVote == 0));\n        Shareholders[holder].canVote = 1;\n        shareholderAdded(msg.sender, holder);\n\n    }\n    //\n    function removeShareholder(address holder) public {\n        require((msg.sender!=director) && !Shareholders[holder].voted && (Shareholders[holder].canVote == 1));\n        Shareholders[holder].canVote = 0;\n        shareholderRemoved(msg.sender, holder);\n    }\n\n    function Vote(uint choiceNumber) public {\n        Shareholder storage decider = Shareholders[msg.sender];\n        require(!decider.voted);\n        decider.voted=true;\n        decider.answer = choiceNumber;\n        choices[choiceNumber].count += decider.canVote;\n    }\n    //\n    function voteWinner() private constant returns (bytes32 voteWin) {\n        uint voteWinCount = 0;\n        for(uint l=0; l<choices.length; l++){\n            if(choices[l].count > voteWinCount){\n                voteWinCount = choices[l].count;\n                voteWin = choices[l].name;\n            }\n        }\n    }\n\n    function voteDecision() public constant returns (bytes32 propName){\n        require(voteOpen == 0 && Decieded == 1);\n        propName = voteWinner();\n    }\n    //\n    function closeVoting() public {\n        require(msg.sender == director);\n        voteOpen = 0;\n        Decieded = 1;\n    }\n\n    function voteCounts(uint ich) public constant returns(uint icnt){\n        icnt = choices[ich].count;\n    }\n\n    function kill() public{\n        if(msg.sender == director)\n            selfdestruct(director);\n   }\n\n}\n",
  "sourcePath": "/home/dotftu/Ethereum/Lab3/contracts/Voting.sol",
  "compiler": {
    "name": "solc",
    "version": "0.4.18+commit.9cf6e910.Emscripten.clang"
  },
  "schemaVersion": "1.0.1",
  "updatedAt": "2017-12-13T18:48:23.176Z"
}